:020000041000EA
:10000000002008205D0100101301001015010010F0
:100010001101001011010010110100101101001058
:100020001101001011010010110100101701001042
:100030001101001011010010190100101B01001026
:100040001D0100101D0100101D0100101D010010F8
:100050001D0100101D0100101D0100101D010010E8
:100060001D0100101D0100101D0100101D010010D8
:100070001D0100101D0100101D0100101D010010C8
:100080001D0100101D0100101D0100101D010010B8
:100090001D0100101D0100101D0100101D010010A8
:1000A0001D0100101D0100101D0100101D01001098
:1000B0001D0100101D0100101D0100101D01001088
:1000C0001D0100101D0100101D0100101D01001078
:1000D0001D0100101D0100101D0100101D01001068
:1000E0001D0100101D0100101D0100101D01001058
:1000F0001D0100101D0100101D0100101D01001048
:100100001D0100101D0100101D0100101D01001037
:1001100000BE00BE00BE00BE00BE00BEEFF3058004
:10012000103800BEF2EB8871CC300010E8300010BF
:10013000A801001090A31AE7D3DEFFFF42012110AF
:10014000FF0100007C340000793512AB4FF0000055
:100150002049086006C881F3088810474FF05040D6
:10016000006810B14FF00000F2E70FA40ECC002998
:1001700002D000F015F8F9E71749184A002000E00E
:1001800001C19142FCD1002080F30A8814498847BC
:10019000144988471449884700BEFDE701C901C2D8
:1001A0009A42FBD3704700BFE830001010010020D6
:1001B000DC050020B43500100000082000000820F5
:1001C000B4350010001008200010082000000000C6
:1001D0007047000008ED00E0DC050020F407002077
:1001E000C12600106102001081260010F8B500BF82
:1001F00010B5054C237833B9044B13B1044800E023
:1002000000BF0123237010BD600700200000000024
:10021000FC2A001008B5034B1BB10349034800E05A
:1002200000BF08BD0000000064070020FC2A001089
:1002300010B5192000F04EF80124192344EC443085
:10024000102000F047F8102344EC4430002010BD8B
:10025000192340EC4030102340EC40307047000040
:1002600008B5FFF7E5FF60B90120FFF7F1FFC820EF
:1002700000F0A2FC0020FFF7EBFFC82000F09CFC80
:10028000F2E7034B034A3221034802F0FDF900BFB5
:10029000002B0010402B0010102B00100C4B03EB18
:1002A000800253F8203083F0400303F0C00302F5CE
:1002B000805CCCF80030C00000F1804000F52030B8
:1002C000416002F540524FF480731360704700BFE5
:1002D0000480034008B5002242EC440042EC400098
:1002E0000521FFF7DBFF08BD0FB400B583B0049C08
:1002F000074802F0E5FA3CB105A90191204602F059
:10030000EFFA044802F0DCFA012002F0B7F900BF6E
:10031000482B0010582B0010EFF3108072B6064BDC
:10032000D3E8CF1F01220029FAD1C3E8412F0029C9
:10033000F6D1BFF35F8F7047870700200023034A81
:10034000C2E88F3F80F31088704700BF8707002006
:1003500070B505460C461646FFF7DEFFE208A95CBD
:1003600004F0070C012303FA0CF3194205D1DBB2A8
:100370000B43AB54FFF7E2FF70BD21463046FFF759
:10038000B3FF0000054A1078431CDBB21370172B33
:1003900002D9134610221A70704700BFB80500201A
:1003A0004FF0E022936843F00053936070470000E1
:1003B000002305E0044A1A440021C2E88F1F0133DC
:1003C0001F2BF7D9704700BF7C070020064B9B68A6
:1003D000103043F82010BFF35F8F00230349C1E8BA
:1003E0008F3F82F31088704700ED00E08507002002
:1003F0000048704700E400E008B5FFF7F9FF00236C
:1004000004E04FF0803240F8042B01330C2BF8D974
:1004100008BD00003AB1064B00F1600243F822101B
:1004200043F8201070472030014B43F820107047EC
:1004300000E100E008B50A4600F01F0301219940E1
:100440004009FFF7E7FF08BD024B9B68103053F8E7
:100450002000704700ED00E070B505460C46EFF354
:10046000108672B60F4BD3E8CF1F01220029FAD1B4
:10047000C3E8412F0029F6D1BFF35F8FFFF7E4FFF8
:10048000094B984201D0A04205D132462146284668
:10049000FFF79CFF70BD054B054AE721054802F0B8
:1004A000F3F800BF850700201D010010D82B0010B5
:1004B000102C00108C2B0010014B0B440360704774
:1004C0007C07002010B50446FFF75CFF014620467C
:1004D000FFF7F2FFFF232371BFF35F8F10BD10B54D
:1004E0000446FFF74FFF01462046FFF7E5FFFF23D5
:1004F000237100236371BFF35F8F10BD10B50D4CE6
:1005000009E00D4B0D4A1A210D4802F0BDF82046B6
:10051000FFF7D8FF08340B4B9C4209D22368002B0D
:10052000F5D0012BEDD12046FFF7D9FF0834F2E7D3
:1005300010BD00BFD40500202C2C00100C2D001085
:100540004C2C0010DC05002041EA00407047000000
:100550000D4B1A68EFF3108172B6D2E8CFCF0120AD
:10056000BCF1000FF9D1C2E84C0FBCF1000FF4D17F
:10057000BFF35F8F1A680023C2E88F3F81F31088B2
:1005800040BF002000217047F00700202DE9F04F08
:1005900085B0EFF30587FFB2103FBB0815D0964D2D
:1005A00007F00307944B9D4214BF0023012307EB80
:1005B0008303924A52F823402378BB4207D1012299
:1005C000BA4005F541535A6031E18D4DE8E78D4B56
:1005D0008D4A92218D4802F057F8D4F814A006EB0A
:1005E00046084FEAC80B0AEBC808D8F80830019350
:1005F000D8F80C90284600F0B1FB019BC01A61EBC3
:100600000903002BC0F21B81B9F1000F65DBD8F89C
:1006100010301A4602937E4B9A4232D0B8F802103C
:1006200089B2B4F90800FFF78FFFD8F81410029BC5
:10063000984702900391029A039B52EA03014CD01F
:10064000002B2BDA0199881A69EB0309C8F8080016
:10065000C8F80C903AF90B30002BC0F2F080D4F8B7
:10066000148003EB430208EBC2029168D268411A7E
:1006700069EB0202002AC0F2E280A6462EF8083F8B
:1006800016E0D8F81420136902921046984720B358
:10069000029A1368029353680393CCE7284600F04C
:1006A0005DFB029B1818039B43EB0109CEE79E46B6
:1006B000BEF900C0BCF1000F0ADB0CEB4C0308EBE9
:1006C000C3039968DA68411A69EB0202002AEEDA7C
:1006D0002AF80BC0AEF80060B1E03AF90B30238184
:1006E0002369EFF3108272B6D3E8CF0F01210028FF
:1006F000FAD1C3E8401F0028F6D1BFF35F8FB4F9E9
:1007000002302AF80B30668021690023C1E88F3F50
:1007100082F3108893E02369EFF3108272B6D3E876
:10072000CF0F01210028FAD1C3E8401F0028F6D1DD
:10073000BFF35F8FB4F804900FFA89F94FF6FF7397
:10074000A38021690023C1E88F3F82F3108816E05F
:100750001E46B6F90020002A0BDB02EB42030EEB2B
:10076000C3039868D968BCEB000068EB010100295D
:10077000EEDAA6F800903EF90A902EF80A20B9F1B8
:10078000000F61DBD4F814E009EB49034FEAC30A18
:100790000EEBC303D3F808C0D3F80C8004F10806AD
:1007A000D7E70023A37104F1080EB4F9083011E073
:1007B0004FF0FF384FF0FF39C0E90289B4F9080063
:1007C000984206D0AEF80020B4F9080021F80C00D9
:1007D00023811346B3F1FF3F39D0616903EB430234
:1007E0004FEAC20C01EBC20031F93220468816F400
:1007F000004FDDD18646ECE700800B40D00700209B
:1008000000000B40202D00101C2E00104C2D00105D
:100810008D0500103B1D45F82360284600F09EFA28
:10082000361A68EB0101012E71F100032FDA012362
:10083000BB40EB63B4F90860002EBFF6CEAEA388D0
:1008400013F4004F3FF467AFA379002BA9D1B4F99B
:100850000830002B1BDB626903EB430302EBC3038D
:100860009E68D3F80C80B8F1FF3F08BFB6F1FF3F98
:10087000D3D0AA6AB11A3B1D55F823309B1A99426E
:10088000C8D32A6A0123BB401A42C6D1C2E740BF7F
:1008900005B0BDE8F08F00BF2DE9F0410446884661
:1008A00017461E46C160FFF76DFD204B03442361D0
:1008B0002770B3B263814FF05042127862704FF6E6
:1008C000FF722281A280013B63804FF0000C08E0A0
:1008D0000CF1FF3560690CEB4C0E20F83E500CF12A
:1008E000010CB445F4D3124B98450CBF01230023EF
:1008F00007EB83030F4A42F8234014D000243C4402
:10090000012505FA07F7C8F820700B492046FFF7C4
:10091000A3FD29462046FFF78DFD08F50158C8F8CC
:100920000070BDE8F0810424E9E700BF7C070020E7
:1009300000800B40D00700208D05001008B5054B46
:100940001B690BB1034808BD034B044A65210448E9
:1009500001F09AFEBC050020902D0010042E00101E
:100960004C2D0010F8B504469E460169EFF3108C3B
:1009700072B6D1E8CF5F0120002DFAD1C1E8450F52
:10098000002DF6D1BFF35F8FB4F90250666905EB15
:100990004500C70006EBC000002D01DBF15F618060
:1009A00000212369C3E88F1F8CF310888D4233DB4D
:1009B00006990161079941618260C0F80CE04188A5
:1009C00089B20131C1F30E0101B9012141802846EC
:1009D000FFF7BAFD2369EFF3108272B6D3E8CFCFE9
:1009E0000121BCF1000FF9D1C3E84C1FBCF1000F8D
:1009F000F4D1BFF35F8FA388F353A580216900234F
:100A0000C1E88F3F82F31088E368217801228A4091
:100A100003F501535A60F8BD4FF0FF30FBE770B5A6
:100A200082B0064615461C469DF8203033B900F0CA
:100A3000ABF9854264EB010100290ADB079B0193B6
:100A4000069B00932A4623463046FFF78BFF02B0F1
:100A500070BD0020FBE703464089B0EB214F31DD3C
:100A600010B50A14586902EB420200EBC202186981
:100A7000EFF3108C72B6D0E8CF4F5FF0010E002C70
:100A8000F9D1C0E844EF002CF5D1BFF35F8F508857
:100A900080B289B288420FD0002019690022C1E8D3
:100AA0008F2F8CF3108830B1DA681B7801219940C0
:100AB00002F50153596010BD40F400405080012000
:100AC0009871EAE700207047F0B585B0EFF3058331
:100AD000DBB2CBB905460F46861F41F1FF34B04269
:100AE00071EB040301D20026344600F04DF9301AB0
:100AF00064EB0101012871F1000308DA2846394648
:100B000000F04AF905B0F0BD1E48FFF7EDFBFFF716
:100B100015FF0023029301931B4B0093324623469B
:100B2000FFF77DFF00281EDAE8E7002300E000233E
:100B3000002BE3D1154B1A68EFF3108172B6D2E89F
:100B4000CFCF0120BCF1000FF9D1C2E84C0FBCF1AE
:100B5000000FF4D1BFF35F8F1A680023C2E88F3F04
:100B600081F3108820BF0A4B5B6A9C42DFD808499A
:100B7000896AB14203D29C42D7D00123D8E701232E
:100B8000D6E700BFB42D001051050010F00700207B
:100B900000000B4038B504460D4600F0F5F820186B
:100BA00045EB0101002902DBFFF78EFF38BD4FF056
:100BB000FF306FF00041F7E708B5C30E4101091A95
:100BC00063F100039B0043EA91738900091843F124
:100BD0000003DB00C80043EA5171FFF7DBFF08BDEB
:100BE000F0B585B005460C46EFF30583DBB293B153
:100BF000404B5B6A8B4209D33E4A926A824208D2DA
:100C00008B4201D0012002E0002000E0002005B06E
:100C1000F0BD0120FBE7FFF791FEC7680678384674
:100C200000F09CF82A1A64EB0101043657F82630CC
:100C3000181A824271F1000312DB20BF2D4B5B6A50
:100C40009C4209D82B4A926AAA4207D29C4201D000
:100C50000120DCE70020DAE70020D8E70120D6E712
:100C6000FFF76CFE002302930193234B00932A4667
:100C70002346FFF7D4FE061E0BDD1E4B5B6A9C422B
:100C80001BD81C4A926AAA422BD29C4213D0012341
:100C900014E0184B5B6A9C4209D8164A926AAA4231
:100CA00007D29C4201D00120B1E70020AFE700202D
:100CB000ADE70120ABE7002300E0002303B920BF2C
:100CC000FFF73CFE3146FFF7C6FE0A4B5B6A9C42CB
:100CD0000BD8084A926AAA4209D29C4203D001204A
:100CE00095E70123EAE7002091E700208FE7012044
:100CF0008DE700BF00000B40510500100048704711
:100D000000000B4010B50A4B1B6923B10A210948AA
:100D1000FFF7D2FB10BDFFF7F1FF0446032100F0FF
:100D20000BF81023032221460148FFF7B5FDEDE73C
:100D3000BC050020F007002010B5054A054C064B05
:100D4000A04214BF1846581CFFF702FB10BD00BF9D
:100D5000342E001000800B409C0700200246436A9E
:100D6000906A1946536A9942FAD17047416A00E085
:100D7000416A9942FCD300E0416A994202D1816AFA
:100D80009142F9D37047000008B50248FFF7E6FF2B
:100D900008BD00BF00000B4008B502460B460248E4
:100DA000FFF7E4FF08BD00BF00000B4070B5049DD5
:100DB00000EB400C4FEA8C0C0CF1804C0CF5803CA5
:100DC000DCF80440AC4201D2CCF80450A0F1040E8F
:100DD0005FFA8EFEBEF1010F27D90CF540544FF497
:100DE000006626601D4C54F820603EB16469B4FB77
:100DF000F6F4013404EB4404033CFDD2DCF800407B
:100E000084EA421202F0E0020CF580542260BEF146
:100E1000010F16D90CF500524FF400611160CCF8A7
:100E200004500E4A42F8203070BD0129D5D10CF58E
:100E3000405403262660DCF8084014F0010FFAD075
:100E4000DCE7DCF800204A4002F003022260DCF814
:100E5000084001228A401442F9D0DBE7A0070020B5
:100E600010B582B04FF480340094FFF79FFF02B0BA
:100E700010BD0000014B53F820007047A007002070
:100E800070B5049C344DB5FBF1FC344D1544344E23
:100E9000B54237D8B2FBFCF5A5F1100EBEF5987F30
:100EA00036D803F1FF3EBEF1060F37D804F1FF3EFE
:100EB000BEF1060F32D8BCEB121F35D8240344EA2A
:100EC00003440368002B35DB264B984242D00E23A7
:100ED00001229A40244B1A6003F580531A60234B79
:100EE0009B6832EA0303FAD10160856000F5405245
:100EF0000432212313600368002BFCDAC46008234A
:100F0000136070BD1A4B1B4A11211B4801F0BCFB3A
:100F10001A4B184A1921184801F0B6FB184B154A0C
:100F20001C21154801F0B0FB164B124A2321124830
:100F300001F0AAFB036803F03F038B42C4D183682E
:100F4000C3F30B03AB42BFD1C36803F4EE23A34248
:100F5000BAD1D6E70F23BBE7001BB70080E84BD31D
:100F600080F8A932008005400020024000000240C5
:100F7000582E0010782F0010A82E0010F42E00100C
:100F8000102F00105C2F0010054A00EB400302EB0D
:100F90008303596000EB4000800001231350704729
:100FA0000080104008B50023DB8A002242E800F2EE
:100FB00012F4800F02D11021984708BD04219847F0
:100FC000FBE70000034BD3F82838002BFAD0BFF31F
:100FD0005F8F704700000E40002207E0054B13446E
:100FE0009B00BFF35F8F002119600132072AF5D9FA
:100FF000704700BF0382031008B5FFF7EDFF08BD7F
:10100000074B4FF42A621A604FF48D72DA6003F5D1
:101010000053044A1A60024B5B68002BFBDA7047EE
:101020000080044000B0FA0010B5044602E054F815
:10103000043B9847014B9C42F9D310BDF82A00109D
:101040007047000008B50248FFF7EEFF08BD00BF7B
:10105000B82A0010064B074A1A6003F58053064A67
:101060001A60064B9A68044B9343FAD1704700BF4D
:10107000002002407F3BEFEFF6FFF3030000024049
:10108000054BDB6CB3F5004F00D07047034B4FF4BA
:101090008022DA64F9E700BF0000115000201150EF
:1010A0004FF0E022D2F8881D034B0B43C2F8883D75
:1010B00010EE3004704700BF03033000054B6FF0A3
:1010C00060421A60044B9B68DB4333F06043F9D104
:1010D000704700BF003002400000024008B545F2F2
:1010E0005320FFF75FFF03460420984708BD08B56B
:1010F00045F25320FFF756FF03460120984708BDED
:1011000008B5FFF755F908BD38B5054CA168054D80
:101110004FF48872284601F00FFCA56038BD00BF6F
:1011200000ED00E00000002038B50420FFF7A2FE2B
:10113000064DA5FB0035AD0C002404E02946E0B2C5
:10114000FFF722FF0134052CF8DD38BD83DE1B4399
:1011500030B583B0264B0022C3F88420FFF750FF40
:10116000244B0122DA63224B5B6C012BFBD1214B18
:1011700003221A631E4B9B6B012BFBD102240094AC
:1011800005231D4A01211D48FFF77AFE052500951C
:101190002B461B4A01211B48FFF772FE1A4B002207
:1011A00021460420FFF75CFE184C23460022012153
:1011B0002846FFF755FE164D2B4600221146082003
:1011C000FFF74EFE2B46002211460920FFF748FE8E
:1011D0002346002211460620FFF742FE2346002246
:1011E00011460720FFF73CFEFFF79EFF03B030BD1E
:1011F0000000014000300140002F68590000054008
:10120000008C864700800540001BB70080D1F008A5
:10121000006CDC0286B003B451FC0804CDE9020185
:1012200051FC0904CDE9040151EC0A04CDE90601A1
:1012300003BCF047BDE800504EEC00C4BDE80050D0
:101240004EEC01C4BDE800504EEC02C400BD0000ED
:1012500000B5FFF7DFFF02E010FE30F4F8D441ECF8
:10126000100443EC112400EE010410EE010480EEA2
:10127000200451EC1004704700B5FFF7CBFF02E0EB
:1012800010FE30F4F8D441EC100443EC112400EECD
:10129000010410EE210480EE200451EC300470476C
:1012A00000B5FFF7B7FF02E010FE30F4F8D410B538
:1012B00041EC100443EC112451EC040453EC0524DC
:1012C000A0FB024C5FF0000EE0FB03CEE1FB02CE80
:1012D0004CEC20440024E1FB03E444EC30E480EED9
:1012E000200451EC5004BDE81040704700B5FFF7F2
:1012F00091FF02E010FE30F4F8D441EC100443EC0E
:10130000112451EC2104A0FB01126FEA820252FB6E
:10131000100052FB12F252FB1000A0EBD07C53ECF9
:1013200004245CFB13F153EC1524A1FB022001FB08
:10133000030053EC4424A2EB000050FB1CF24FEAE4
:10134000111312EB017043EBE27140EA515020EAB5
:10135000915020F0070053EC7524A0FB023C53ECA5
:10136000752400FB03CC01FB02CC53EC0424ACEB52
:10137000824C40EA5C70A0F1010041EC400480EE38
:10138000200451EC7004704700B5FFF743FF02E002
:1013900010FE30F4F8D440EC700400EE010410EEBE
:1013A000210480EE200451EC3004704700B5FFF7B3
:1013B00031FF02E010FE30F4F8D440EC600400EE9F
:1013C000010410EE210480EE200451EC300470473B
:1013D00000B5FFF71FFF02E010FE30F4F8D441EC37
:1013E000800400EE010410EE010480EE400410EED3
:1013F0001304704700B5FFF70DFF02E010FE30F454
:10140000F8D441EC800400EE010410EE010480EEFB
:10141000400410EE3304704700B5FFF7FBFE02E016
:1014200010FE30F4F8D441EC100443EC112400EE2B
:10143000010410EE3004C0F30070704700B5FFF7F0
:10144000E9FE02E010FE30F4F8D443EC102441EC45
:10145000110400EE010410EE30F48CBF01200020D6
:10146000704700BF00B5FFF7D5FE02E010FE30F474
:10147000F8D443EC102441EC110400EE010410EE0A
:1014800030F42CBF01200020704700BF00B5FFF7EB
:10149000C1FE02E010FE30F4F8D441EC100443EC3D
:1014A000112400EE010410EE30F42CBF01200020C6
:1014B000704700BF00B5FFF7ADFE02E010FE30F44C
:1014C000F8D441EC100443EC112400EE010410EEBA
:1014D00030F48CBF01200020704700BF704720B15E
:1014E00008B50A684968904708BD70470146002062
:1014F00007E000EB8000531C0B60137803EB400007
:1015000030380A681378303BDBB2092BF1D97047C9
:101510002DE9F04F83B005460E4693461F46DDF891
:1015200030A00D9CDDF838900F9B13F0030F19D1FC
:10153000A0460192C84509D202F1010B3B46314653
:101540002020A84708F101085A46F3E7DDF804B067
:1015500008E0013C02F101083B4631461AF804005C
:10156000A8474246002CF4D10F9B13F0020F03D181
:10157000104603B0BDE8F08FA2EB0B034B45F7D24A
:10158000541C3B4631462020A8472246F4E72DE96B
:10159000F04385B00C9D0D9C9DF83890DDF83C80A3
:1015A000DDF840E0119F129E16F0020F21D17FB1AD
:1015B00016F0010F0CD0B9F1000F02D116F00C0F8C
:1015C00006D0013F04E04FF0300C05F804C00134B0
:1015D000744501D21F2CF6D916F0010F09D0BC4278
:1015E00007D21F2C05D84FF0300C05F804C0013489
:1015F000F2E716F0100F17D016F4806F04D11CB16B
:10160000744524D0BC4222D0B8F1100F2BD0B8F1D1
:10161000100F33D0B8F1020F3BD01F2C04D84FF07D
:10162000300C05F804C001341F2C07D8B9F1000FA5
:1016300037D04FF02D0C05F804C001340396029703
:1016400001940095FFF764FF05B0BDE8F083B4F1A5
:10165000010C06D0B8F1100F01D06446D4E7023C6B
:10166000D2E76446D0E716F0200FD0D11F2CCED899
:101670004FF0780C05F804C00134CEE716F0200FC7
:10168000C8D01F2CC6D84FF0580C05F804C0013440
:10169000C3E71F2CC1D84FF0620C05F804C0013419
:1016A000BBE716F0040F05D04FF02B0C05F804C073
:1016B0000134C3E716F0080FC0D04FF0200C05F836
:1016C00004C00134BAE7F0B591B0169C189D1B9E7A
:1016D0000CB926F0100616F4806E16D064B34FF0E5
:1016E000000E12E00CF1300C5FFA8CFC0EF10107D9
:1016F0000EF1400EEE440EF820CCB4FBF5FCAC42EB
:101700001BD31F2F19D8BE466446B4FBF5FC05FB5E
:101710001C4C5FFA8CFCBCF1090FE3D916F0200FCA
:1017200008D04127BC445FFA8CFCACF10A0C5FFA8C
:101730008CFCDBE76127F5E7274606961A9C0594A3
:10174000199C049403959DF85C400294019708ACA1
:101750000094FFF71CFF11B0F0BD2DE9F04F95B0DC
:1017600009900A910B929B461E9D1F9E229FDDF8B9
:101770008C80DDF898A055EA060301D12AF0100A02
:101780001AF480641FD055EA060330D000241AE012
:1017900003F13002D2B204F1010904F150030DEB60
:1017A000030404F8202C3A4643462846314601F00B
:1017B0006BF9BD4276EB08031BD3B9F11F0F18D8A4
:1017C0004C4605460E463A4643462846314601F009
:1017D0005BF9D3B2092BDBD91AF0200F05D04122D7
:1017E0001A44D2B20A3AD2B2D5E76122F8E74FF0F2
:1017F0000009CDF818A0259B0593249B049303971B
:101800009DF880300293CDF804900CAB00935B46BA
:101810000B9A0A990998FFF7BAFE15B0BDE8F08F48
:101820002DE9F04F91B004460D4617461E46DDE9FE
:101830001A2310461946FFF7F3FD002840F0ED800B
:101840004FF0FF32AE4BDDE91A01FFF737FE0028FB
:1018500040F0E3804FF0FF326FF48013DDE91A01AE
:10186000FFF7F0FD002840F0D88000220023DDE9DA
:101870001A01FFF7E7FD002840F0E2809DED1A7B9A
:101880008DED067B1E9B13F480630D9301D106231F
:101890001C93DDE9062310461946CDE9080152EAFA
:1018A000030100F0D880C3F30A50C3F3130390463A
:1018B00043F07F5949F44019A0F2FF30FFF768FD6B
:1018C0007DA3D3E90023FFF7EFFC7DA3D3E9002339
:1018D000FFF7C2FC82468B4600228A4B40464946AF
:1018E000FFF7CEFC78A3D3E90023FFF7DDFC024627
:1018F0000B4650465946FFF7AFFCFFF76DFD824699
:10190000FFF746FD8046894671A3D3E90023FFF720
:10191000CBFC00227C4BFFF79FFCFFF75DFD83466D
:101920006DA3D3E9002340464946FFF7BDFC80463E
:1019300089465846FFF72CFD69A3D3E90023FFF73A
:10194000B3FC02460B4640464946FFF799FC8046E9
:10195000894602460B46FFF7A7FCCDE90A010BF2C8
:10196000FF3B00210022CDE908124FEA0B530993F7
:101970000023089342464B4640464946FFF76CFC1D
:10198000CDE90E0142464B4600204FF08041FFF763
:1019900077FC8046894600225C4BDDE90A01FFF7AF
:1019A000A9FC00225A4BFFF757FC02460B46DDE923
:1019B0000A01FFF79FFC0022564BFFF74DFC024641
:1019C0000B46DDE90A01FFF795FC02460B4640464F
:1019D0004946FFF741FC02460B46DDE90E01FFF7E1
:1019E00089FC00224C4BFFF737FCDDE90823FFF7A9
:1019F0005BFC80468946CDE90889DDE90623FFF7CF
:101A00005DFD50B30AF1FF3A0022414B4046494682
:101A1000FFF770FCCDE908011FE01E9B04931D9B9E
:101A200003931C9B02939DED1A7B8DED007B334647
:101A30003A462946204600F003F911B0BDE8F08F80
:101A40009FED297B8DED067B1A9B06931B9B03F173
:101A50000043079316E74FF0000A0AF16303C62B11
:101A600027D84FF004081E9B13F4006F5FD0DDE908
:101A7000081213460B4313D01DA3D3E90023DDE95D
:101A80000601FFF707FD002800F0B4801AA3D3E990
:101A90000023DDE90601FFF7D5FC002800F0AA804D
:101AA0001C9B53453ADDA3EB0A0A0AF1FF331C9352
:101AB00036E04FF00508D6E7FB799F501344D33F3B
:101AC000B3C8608B288AC63F61436F63A787D23F44
:101AD00071A379094F930A401655B5BBB16B02400B
:101AE000EF39FAFE422EE63F000000000000000041
:101AF0002D431CEBE2361A3F0000000080842E418B
:101B0000FFFFEF7F0000F83F0000E03F00002C40A7
:101B100000002440000018400000F03F00231C9308
:101B20001E9B43F480631E934FF00008C2461D9B2A
:101B3000984569D2A3EB08091E9B13F0020B04D051
:101B4000B8F1000F01D04FF00009BAF1000F07D033
:101B5000DDE90823DDE90601FFF7CCFBCDE906014D
:101B600000220023DDE91A01FFF76CFC00284ED1AA
:101B70001E9B23F400630493CDF80C901C9B0293EE
:101B80009DED067B8DED007B33463A462946204687
:101B900000F056F8B8F1000F3FF44FAF1E9B13F062
:101BA000200F3CD04FF0450C00F1010933460246AE
:101BB00029466046A0478AEAEA72A2EBEA72052348
:101BC000059308F1FF330493002303930A23029340
:101BD0004FEADA700190009233464A462946204681
:101BE000FFF771FDBBF1000F3FF427AF0246DDF8B0
:101BF00074901EE01C9B002B99D00D9B002B96D05F
:101C00001C9B013B1C9392E74FF0000994E7DDE930
:101C10000601024601F10043CDE90623A8E74FF093
:101C2000650CC1E702F10108334629462020A04790
:101C30004246D31B4B45F5D31046FEE6000000009C
:101C40002DE9F04F2DED028B95B007900A91924649
:101C50009B46DDE92089229D42464B464046494647
:101C6000FFF7DEFB002835D14FF0FF326FF4801311
:101C700040464946FFF7E6FB00283AD14FF0FF32D5
:101C80009F4B40464946FFF719FC002840D198A3D6
:101C9000D3E9002340464946FFF710FC00284FD106
:101CA00095A3D3E9002340464946FFF7CBFB002824
:101CB00046D10022002340464946FFF7C3FB0028D7
:101CC0004CD100230B93249B13F4806F00F0B7805A
:101CD000002456E0249B0393239B02930323019348
:101CE000884B00935B4652460A990798FFF710FC11
:101CF00037E1249B0393239B029304230193824B9C
:101D000000935B4652460A990798FFF701FC28E1C9
:101D1000249B13F004030FD07C4A7BB10423249945
:101D2000039123990291019300925B4652460A99CE
:101D30000798FFF7EDFB14E1754AEEE70323EEE7A2
:101D4000249B0493239B03930295CDE900895B4672
:101D500052460A990798FFF763FD02E142464B4657
:101D600000200021FFF78CFA8046894601230B935F
:101D7000A9E704F150036B44302203F8202C013D05
:101D800001341F2C01D8092DF3D840464946FFF7EE
:101D900023FB0646FFF7FCFA02460B46404649463F
:101DA000FFF76EFA5B4B03EBC50393ED008B53EC2F
:101DB000182BFFF779FA02460B46CDE90823FFF707
:101DC0001DFB0746FFF7F6FA02460B46DDE9080160
:101DD000FFF756FA02460B46CDE9082300224E4B88
:101DE000FFF76CFB68B301373846FFF7E3FA0246AA
:101DF0000B4651EC180BFFF739FB08B101360027F1
:101E00006DBB3046FFF7C4FA02460B4640464946D2
:101E1000FFF736FA0746884600223F4BFFF712FBD2
:101E200000284CD100223C4B38464146FFF746FB88
:101E3000002844D116F0010F41D001363FE00625BD
:101E400046E70022344BDDE90801FFF7FBFA0028E2
:101E5000D6D117B117F0010FD2D00137D0E71F2C20
:101E600017D8013D2D4BA3FB0723DB08194603EBD5
:101E70008303A7EB4303621C303304F150000DEBE6
:101E8000000404F8203C092F02D90F461446E6E767
:101E900014461F2C0AD86B1E45B104F150026A4447
:101EA000302102F8201C1D460134F2E71F2C06D811
:101EB00004F150036B442E2203F8202C01341F2C14
:101EC00031D8174A82FB0632F317C3EBA2031A4636
:101ED00003EB8303A6EB4303611C303304F1500092
:101EE0000DEB000404F8203C1646DAB10C46E6E798
:101EF0000000000065CDCD410000000065CDCDC1E2
:101F0000FFFFEF7F20300010243000101830001049
:101F100014300010303000100000E03FCDCCCCCCAD
:101F2000676666660C46249B03F00303012B1DD0F5
:101F30001F2C09D80B9B002B35D004F150036B44A8
:101F40002D2203F8202C0134249B0393239B02931E
:101F500001940CAB00935B4652460A990798FFF731
:101F6000D7FA15B0BDEC028BBDE8F08F239BB3B15F
:101F70000B9B1BB9249B13F00C0F12D0239B013B2E
:101F80002393194606E004F150036B44302203F812
:101F9000202C01348C42CBD21F2CF4D9C8E72399D2
:101FA000F8E72399F6E7249B13F0040F07D004F118
:101FB00050036B442B2203F8202C0134C4E7249BEC
:101FC00013F0080FC0D004F150036B44202203F833
:101FD000202C0134B8E700BF2DE9F04F8FB0074641
:101FE00016460D938846002900F0248300240D9B9B
:101FF0001878002800F02083252809D0651C334676
:1020000022464146B8470D9B01330D932C46EEE71F
:1020100001330D9300250D9B1978A1F12002102AA0
:102020000AD8DFE802F03809093D09090909090958
:102030000933092E09092900A1F13003DBB2092B6C
:1020400033D92A2936D000230A930D9B1A782E2AD9
:1020500040D04FF0000B0D9A1378683B122B77D8C5
:10206000DFE803F06476D376567676767676767603
:10207000727676767676D80045F0010501330D93B9
:10208000C9E745F0020501330D93C4E745F00405A7
:1020900001330D93BFE745F0080501330D93BAE70F
:1020A00045F0100501330D93B5E70DA8FFF71EFAB3
:1020B0000A90CAE7189B1A1D18921868002804DBBA
:1020C0000A900D9B01330D93BFE745F00205434293
:1020D0000A93F6E745F480655A1C0D925A78A2F1EE
:1020E0003003DBB2092B04D92A2A07D04FF0000BAA
:1020F000B1E70DA8FFF7FAF98346ACE7189B1A1D64
:1021000018921B6823EAE37B0D9B01330D93A2E732
:1021100045F48071531C0D9352786C2A01D00D4602
:1021200016E045F4407501330D9311E045F0800150
:10213000531C0D935278682A01D00D4608E045F0F3
:10214000C00501330D9303E045F4807501320D9213
:102150000D9B1878A0F12503532B00F26182DFE874
:1021600013F054025F025F025F025F025F025F02D0
:102170005F025F025F025F025F025F025F025F0257
:102180005F025F025F025F025F025F025F025F0247
:102190005F025F025F025F025F025F025F025F0237
:1021A0005F027401540174015F025F025F025F020B
:1021B0005F025F025F025F025F025F025F025F0217
:1021C0005F025F025F025F025E005F025F025F020A
:1021D0005F025F025F025F025F025F025E009B01BF
:1021E0005E007401540174015F025E005F025F02D1
:1021F0005F025F025F025E0039025F025F02D4018C
:102200005F025E005F025F025E0045F4007501320E
:102210000D929DE745F4807501320D9298E778287C
:1022200009D058283AD06F283AD062283AD025F001
:1022300010050A2300E01023582835D0692803D060
:10224000642801D025F00C0515F4806F01D025F02D
:10225000010569282BD0642829D015F4007F40F0AF
:10226000968015F4807F40F0AE8015F0400F00F0AE
:10227000BF80189A111D1891127805950A9904913A
:10228000CDF80CB00293002301930092334622460E
:1022900041463846FFF717FA044629E01023CBE7FA
:1022A0000823C9E70223C7E745F02005C6E715F470
:1022B000007F21D115F4807F42D115F0400F58D016
:1022C000189A111D1891127882EAE271A1EBE2715D
:1022D00005950A980490CDF80CB00293D20F0192A4
:1022E00000913346224641463846FFF7ECF9044652
:1022F0000D9B01330D937AE6189A073222F00702FC
:1023000002F108011891516812680846002913DB90
:1023100008950A9D0795CDF818B0049300230593FE
:10232000C90F029100920190334622464146384639
:10233000FFF713FA0446DBE7524261EB4100E7E79F
:10234000189A111D1891126882EAE271A1EBE271EC
:1023500005950A980490CDF80CB00293D20F019223
:1023600000913346224641463846FFF7ACF9044611
:10237000BEE715F0800F05D0189A111D1891B2F91B
:102380000020A1E7189A111D189112689CE7189A6D
:10239000073222F0070202F10801189108950A9904
:1023A0000791CDF818B00021049305910291D2E96C
:1023B0000023CDE900233346224641463846FFF745
:1023C000CCF9044694E7189A111D189105950A99BD
:1023D0000491CDF80CB0029300230193136800938D
:1023E0003346224641463846FFF76DF904467FE7FB
:1023F00015F0800F04D0189A111D189112883CE72F
:10240000189A111D1891126837E746281AD0189BA0
:10241000073323F0070303F10802189204950A9A80
:102420000392CDF808B0D3E90023CDE90023334669
:10243000224641463846FFF703FC04460D9B013314
:102440000D93D4E545F02005E1E7672801D0472842
:1024500001D145F40065452801D0472801D145F058
:102460002005189B073323F0070303F10802189295
:1024700004950A9A0392CDF808B0D3E90023CDE978
:1024800000233346224641463846FFF7C9F9044641
:102490000D9B01330D93AAE515F002051FD04FF0F7
:1024A00001091898031D189304F1010A33462246C6
:1024B00041460078B847BDB90D9B01330D93544692
:1024C00095E502F1010A334641462020B8474B46C4
:1024D000524603F101099B45F3D81446E1E7012375
:1024E000DDF828B02246F4E75246DDF828A006E0E1
:1024F000551C334641462020B847A1462A4609F1DB
:102500000104CA45F4D89246D6E7189B1A1D1892C2
:10251000D3F800A0BBF1000F1ED14FF0FF33D1461E
:1025200002E009F10109134699F8002012B15A1E80
:10253000002BF6D1A9EB0A0915F480630B9302D0A6
:10254000D94528BFD94615F002030C9306D0224680
:102550005C46B3460B9E1DE05B46E0E722460A9CC4
:102560004B4607E002F10109334641462020B847B7
:102570002B464A465D1C9C42F4D8A9465C46B346AD
:102580000B9E07E01C460AF1010A551C5B464146BA
:10259000B8472A469AF8000020B1002EF3D0631EF7
:1025A000002CEFD114465E460C9B1BB90D9B0133EA
:1025B0000D931CE5DDF828A006E0551C3346414686
:1025C0002020B847A1462A4609F10104CA45F4D89B
:1025D0001446EBE745F02105189B1A1D18921B685D
:1025E000059508220492CDF80CB010220292002228
:1025F000019200933346224641463846FFF763F87E
:1026000004460D9B01330D93F1E4651C33462246CD
:1026100041462520B8470D9B01330D932C46E6E437
:10262000651C334622464146B8470D9B01330D9346
:102630002C46DCE4074FD9E4B44201D3721E00E01B
:102640002246334641460020B84720460FB0BDE839
:10265000F08F00BFDD14001000B585B0029003912B
:10266000009313464FF0FF3202A90348FFF7B4FC72
:1026700005B05DF804FB00BFDF14001000BEFDE7ED
:1026800008B5FFF7FBFF000000B583B08C46194684
:1026900013465AB1074A5BB1019300926346024662
:1026A000054800F03BF90120FFF7E8FF034AF2E795
:1026B000024BF1E780300010903000108C30001099
:1026C00010B5EFF30583DBB203B100BEFEF7BAFC31
:1026D000044C02E054F8043B9847034B9C42F9D366
:1026E00010BD00BFF82A0010FC2A001008B50346F0
:1026F00008461B681146984708BD0000F8B5074614
:102700000D461646437D13B1002420460CE00368B5
:102710001146284698472EE03B7D10E03B68022199
:1027200015489847601C0134B44214DA002CF3DDDC
:102730002B1913F8013C0D2B14BF002301232A5D34
:102740000A2AF0D1002BEED1A042E7DA3B68211A29
:1027500028449847E2E7B04203DA3B68311A28443C
:102760009847002E07DD354415F8013C0D2B14BFAA
:10277000002301233B75F8BDC030001038B5036855
:10278000BBB105460B4B1C6806E0294651F8042BEB
:102790002046FFF7B3FF24694CB12368002BFAD021
:1027A000054B1B68002BF0D0A342F4D1EDE70023CA
:1027B0002B6038BDC8070020CC07002038B505467F
:1027C0000C460B68802B05D021684B1C23600C4401
:1027D000257138BD0846FFF7D1FFF5E708B5FEF7CC
:1027E000D3FA074A821841F10003002B03DB0548A6
:1027F00000F05AF908BD4FF0FF326FF00043F6E7E2
:1028000040420F00D405002008B5024800F044F90A
:1028100008BD00BFD40500202DE9F04383B0064673
:102820000D4690461C46FFF7D9FF8146B5F1FF3FA4
:1028300004D044B1174F184B1C6807E0304600F035
:10284000F1F80546F5E7154FF5E72469BCB12368B3
:10285000002BFAD0124B1B680BB1A342F5D12A46CC
:1028600031462046B847B8F1000FEED00A238DF864
:10287000073001220DF107012046B847E5E7B9F11D
:10288000000F03D1284603B0BDE8F083FFF7BCFF7B
:10289000F8E700BFFD260010C8070020ED26001055
:1028A000CC07002010B5054B1C6801E0984724694F
:1028B0001CB16368002BF9D1F9E710BDC8070020EF
:1028C00038B5054600F0AEF8044601231A46014625
:1028D0002846FFF7A1FFFFF7E5FF204638BD0000BF
:1028E00070B5A2B004460E46FFF778FF05460023F8
:1028F00001933346224601A90748FFF7ADFE04467F
:1029000001A8FFF73BFFFFF7CDFF15B9204622B026
:1029100070BDFFF779FFF9E7BD2700100FB400B5D0
:1029200083B004A951F8040B0191FFF7D9FF03B05C
:102930005DF804EB04B07047844641EA000313F0ED
:10294000030349D1403A23D30B6803604B684360CB
:102950008B688360CB68C3600B6903614B6943611B
:102960008B698361CB69C3610B6A03624B6A436203
:102970008B6A8362CB6AC3620B6B03634B6B4363EB
:102980008B6B8363CB6BC36340304031403ADBD207
:1029900030320BD30B6803604B6843608B688360F5
:1029A000CB68C36010301031103AF3D20C3205D32B
:1029B00051F8043B40F8043B043AF9D2043208D001
:1029C000D2071CBF11F8013B00F8013B01D30B8873
:1029D00003806046704700BF082A13D38B07B1D02D
:1029E00010F00303AED0C3F10403D21ADB071CBFFF
:1029F00011F8013B00F8013BA4D331F8023B20F869
:102A0000023B9FE7043AD9D3013A11F8013B00F8A1
:102A1000013BF9D20B7803704B7843708B7883704D
:102A20006046704720F0030110F00300C0F1000081
:102A300051F8043B00F1040C4FEACC0C6FF000029B
:102A40001CBF22FA0CF213434FF0010C4CEA0C2C81
:102A50004CEA0C4CA3EB0C0222EA030212EACC1261
:102A600004BF51F8043B0430F4D0C2F1000102EA83
:102A70000102B2FA82F2C2F11F0200EBD2007047EB
:102A8000F8B500BF0000000001B40248844601BC54
:102A9000604700BF7902002001B40248844601BCAF
:102AA000604700BF2102002001B40248844601BCF7
:102AB000604700BFED010020DD1000105510001030
:102AC0008110001051110010BD100010F90F0010FE
:102AD00001110010C50F0010FD04001009110010B5
:102AE000050D001041100010EF100010A110001093
:0C2AF000A1030010F903001015020010F3
:102B00007263203D3D205049434F5F4F4B00000012
:102B10002F55736572732F616964616E776F726B85
:102B20006D616E2F446F63756D656E74732F3433F2
:102B3000332F626C696E6B2F626C696E6B2E630053
:102B40006D61696E000000000A2A2A2A2050414E59
:102B50004943202A2A2A0A000A00000064656C748E
:102B600061203E3D202D32303438202626206465F9
:102B70006C7461203C3D20323034362026262021E2
:102B80002864656C74612026203129002F557365F7
:102B900072732F616964616E776F726B6D616E2FF6
:102BA0002E7069636F2D73646B2F73646B2F322EDD
:102BB000312E312F7372632F7270325F636F6D6DC0
:102BC0006F6E2F68617264776172655F6972712FD1
:102BD0006972712E6300000063757272656E7420F5
:102BE0003D3D205F5F756E68616E646C65645F7506
:102BF0007365725F697271207C7C20637572726587
:102C00006E74203D3D2068616E646C65720000004A
:102C10006972715F7365745F6578636C75736976EB
:102C2000655F68616E646C657200000031203D3D37
:102C3000202875696E747074725F74296C2D3E73F0
:102C400070696E5F6C6F636B000000002F557365D9
:102C500072732F616964616E776F726B6D616E2F35
:102C60002E7069636F2D73646B2F73646B2F322E1C
:102C7000312E312F7372632F636F6D6D6F6E2F70F6
:102C800069636F5F73796E632F6D757465782E63FA
:102C900000000000746F74616C0000006D74782D8A
:102CA0003E636F72652E7370696E5F6C6F636B004D
:102CB0006C6F636B5F69735F6F776E65725F69647A
:102CC0005F76616C6964286D74782D3E6F776E65F0
:102CD000722900006D74782D3E656E7465725F63B5
:102CE0006F756E74000000006D757465785F6578AF
:102CF000697400006D757465785F656E7465725FE8
:102D0000626C6F636B5F756E74696C0072756E7464
:102D1000696D655F696E69745F6D757465780000D3
:102D2000706F6F6C2D3E74696D65725F616C61725E
:102D30006D5F6E756D203D3D2074696D65725F61DC
:102D40006C61726D5F6E756D000000002F557365CC
:102D500072732F616964616E776F726B6D616E2F34
:102D60002E7069636F2D73646B2F73646B2F322E1B
:102D7000312E312F7372632F636F6D6D6F6E2F70F5
:102D800069636F5F74696D652F74696D652E63008B
:102D900064656661756C745F616C61726D5F706FA4
:102DA0006F6C5F696E697469616C697A6564282902
:102DB00000000000417474656D7074656420746F68
:102DC00020736C65657020696E73696465206F6639
:102DD00020616E20657863657074696F6E2068612C
:102DE0006E646C65723B2075736520627573795FE4
:102DF0007761697420696620796F75206D757374C9
:102E000000000000616C61726D5F706F6F6C5F67D6
:102E100065745F64656661756C740000616C6172F5
:102E20006D5F706F6F6C5F6972715F68616E646C0B
:102E300065720000486172647761726520616C613F
:102E4000726D20256420616C726561647920636C09
:102E500061696D656400000076636F5F667265711D
:102E6000203E3D205049434F5F504C4C5F56434FEE
:102E70005F4D494E5F465245515F485A20262620F5
:102E800076636F5F66726571203C3D205049434F09
:102E90005F504C4C5F56434F5F4D41585F46524523
:102EA000515F485A000000002F55736572732F61FF
:102EB0006964616E776F726B6D616E2F2E706963DE
:102EC0006F2D73646B2F73646B2F322E312E312F65
:102ED0007372632F7270325F636F6D6D6F6E2F68E8
:102EE000617264776172655F706C6C2F706C6C2EB0
:102EF000630000006662646976203E3D2031362022
:102F00002626206662646976203C3D2033323000FC
:102F100028706F73745F64697631203E3D203120E4
:102F2000262620706F73745F64697631203C3D20E3
:102F300037292026262028706F73745F64697632E3
:102F4000203E3D203120262620706F73745F646917
:102F50007632203C3D203729000000007265665F14
:102F600066726571203C3D202876636F5F667265EE
:102F700071202F2031362900706C6C5F696E697486
:102F8000000000004465627567000000626F6F74A6
:102F9000325F77323571303830000000322E312EFA
:102FA000310000007069636F32000000626C696E6E
:102FB0006B00000041707220203420323032350026
:102FC00005005250DE65F468C83500100600525006
:102FD0005422A29DB42F001006005250861C0302FA
:102FE000AC2F001006005250BBFF3CB6A42F0010BF
:102FF00006005250ABB360539C2F00100600525095
:10300000E182887F8C2F001006005250D3F0754269
:10301000842F0010666E6900666E692B0000000048
:103020006E616E00666E692D0000000000000000F9
:10303000000000000000F03F0000000000002440FD
:1030400000000000000059400000000000408F40D8
:10305000000000000088C34000000000006AF84043
:103060000000000080842E4100000000D012634167
:103070000000000084D797410000000065CDCD41DD
:103080002C2066756E6374696F6E3A200000000034
:10309000617373657274696F6E20222573222066D6
:1030A00061696C65643A2066696C6520222573222B
:1030B0002C206C696E65202564257325730A000039
:0430C0000D0A0000F5
:0830C400E4D1FF0F0100000040
:1030CC00C02F0010CC2F0010D82F0010E42F0010B0
:0C30DC00F02F0010FC2F00100830001036
:1030E80000B503460268EFF3108C72B6D2E8CFEF52
:1030F8000120BEF1000FF9D1C2E84E0FBEF1000F5A
:10310800F4D1BFF35F8F93F90420002A0ADB81B161
:103118000A6000201A680023C2E88F3F8CF31088E9
:103128005DF804FB4FF0504292F900201A7101201B
:10313800F0E70020EEE70000F8B51E460368002B14
:1031480027D0044615464FF0504393F90070216884
:10315800EFF3108C72B6D1E8CF2F0123002AFAD1F1
:10316800C1E8423F002AF6D1BFF35F8F94F904E02B
:10317800BEF1000F13DB22680023C2E88F3F8CF3F7
:1031880010882846314600F0EFF90028DFD00020EB
:103198000DE0074B074AA621074800F0EDF9277113
:1031A80022680023C2E88F3F8CF310880120F8BD05
:1031B8009C2C0010F42C00104C2C001070B582B020
:1031C800064615461C4601A9FFF78AFF38B99DF93E
:1031D80004204FF0504393F900309A4201D102B0D5
:1031E80070BD2A4623463046FFF7A6FFF7E70000E2
:1031F80008B50368EFF3108272B6D3E8CFCF012188
:10320800BCF1000FF9D1C3E84C1FBCF1000FF4D199
:10321800BFF35F8F90F90430002B09DBFF230371A4
:1032280001680023C1E88F3F82F3108840BF08BDC2
:10323800024B034AD521034800F09EF9B02C001038
:10324800E82C00104C2C001053B94AB9002908BFCB
:1032580000281CBF4FF0FF314FF0FF3000F082B95B
:10326800ADF1080C6DE904CE00F006F8DDF804E0D5
:10327800DDE9022304B070472DE9F04F099D0446AB
:103288000F46002B48D18A42944661D9B2FA82F39C
:1032980043B1C3F120019F4002FA03FC9C4020FA8D
:1032A80001F10F434FEA1C411FFA8CFE220CB7FBB9
:1032B800F1F601FB167706FB0EF042EA0742904250
:1032C80008D91CEB020206F1FF3702D2904200F245
:1032D80037813E46121AA4B2B2FBF1F001FB10226C
:1032E80000FB0EFE44EA0244A64508D91CEB040480
:1032F80000F1FF3202D2A64500F21C81104640EAD6
:103308000640A4EB0E0400261DB1DC400023C5E9ED
:1033180000433146BDE8F08F8B4209D9002D00F0FB
:10332800FD800026C5E9000130463146BDE8F08F32
:10333800B3FA83F6002E4BD18B42C0F0F280824262
:1033480040F2EF803046002DE3D0C5E90047E0E7C2
:1033580002B9FFDEB2FA82F3002B40F09D80891A91
:103368004FEA124E97B20126200CB1FBFEF20EFB7B
:10337800121140EA014107FB02F088420FD91CEB09
:10338800010102F1FF382CBF4FF001094FF000098D
:10339800884203D9B9F1000F00F0CF804246091ADC
:1033A800A4B2B1FBFEF00EFB101100FB07F744EAD4
:1033B8000144A74208D91CEB040400F1FF3102D2F2
:1033C800A74200F2B4800846E41B40EA02409BE7AB
:1033D800C6F12007B34001FA06F422FA07FCF940C7
:1033E800B2404CEA030C20FA07F34FEA1C491C438D
:1033F8001FFA8CFE00FA06F3200CB1FBF9F809FB62
:10340800181140EA014108FB0EF088420FD91CEB65
:10341800010108F1FF3A2CBF4FF0010B4FF0000BF0
:10342800884203D9BBF1000F00F08D80D046091AFD
:10343800A4B2B1FBF9F009FB101100FB0EFE44EA3F
:1034480001418E4507D91CEB010100F1FF3401D27F
:103458008E457FD8204640EA0840A1EB0E01A0FB2C
:10346800029841454C46C64602D306D14B4504D284
:103478000138B9EB020468EB0C0E002D70D01A1B52
:1034880061EB0E0122FA06F301FA07F7F140002674
:103498001F43C5E900713CE702FA03FCC3F12000B1
:1034A80001FA03F221FA00F64FEA1C4E24FA00F161
:1034B8001FFA8CF79C401143B6FBFEF00A0C0EFB7A
:1034C800106642EA064200FB07F696420ED91CEB4C
:1034D800020200F1FF382CBF4FF001094FF000093C
:1034E800964202D9B9F1000F31D04046921B89B2F9
:1034F800B2FBFEF60EFB162241EA024106FB07F27A
:103508008A4207D91CEB010106F1FF3801D28A4231
:1035180023D84646891A46EA004625E72E46284615
:10352800F7E6841A61EB030301201F460BE76444A6
:10353800023849E764440238E1E6023A61442EE77A
:10354800023E6244C6E6A8F1020861446FE7023809
:103558006244CBE7023861447DE7023E6144D9E723
:103568002E46D6E6704700BF01B40248844601BC27
:10357800604700BFE10B001001B40248844601BC5B
:10358800604700BF892600101000000000000000FE
:103598000000000000000000000000000000000023
:0C35A800E0050020000000000000000012
:1035B400D3DEFFFFFE010000FF01000084CBFFFF0C
:0435C400793512AB98
:040000051000014D99
:00000001FF
